:040000008231B12A6E
:100008007E148031003086000030870020000E0802
:10001800AA000B1C10281128752A0F08B900270000
:1000280016082000AF002F08183E84009A300318E5
:10003800013E85000008B300330A03192428252847
:100048003F283308183E84009B300318013E850082
:100058000008B0003309270096052000300A03196C
:10006800362837283F283008D13E860001308700DF
:100078002A080F3981002F1C42284328752A21009D
:100088004E082200B70021004D082200B6002100CA
:100098004C082200B50021004B082200B4002000C3
:1000A8005708031D58285928FA283908FD00013037
:1000B800FD36890B5C287D083F39BA003A080319D8
:1000C80066286728A728BA1D6A286B287F283A0857
:1000D80007390319702871287F2802305306031D39
:1000E800762877287A280130D407A5280230D3004B
:1000F8000130D400A5283A089F31B4278031013A4D
:10010800031D87288828A228033020005306031DD2
:100118008E288F2892280130D4079B28530303196F
:10012800962897288F280130D3000130D4003A0848
:100138009F31E52780312000D200A5282000D40176
:10014800D301D601C0285608031DAB28AC28BC280B
:100158005203031DB028B128BC28033053060319E5
:10016800B628B728B9280330D3000130D407BE28F1
:10017800D401D3010130D6070F305402031CC5281F
:10018800C628722A9630A0000030A100A201923140
:10019800562280312200EE010130ED002000530884
:1001A800D700B401B50107303502031CDC28DD286F
:1001B800DE28F1280730F00034089F31A12780316C
:1001C800423E20003507FD007D088600013087008B
:1001D8000F3081000130B507D7280130B40705304A
:1001E8003402031CF828F928D628722A570803195C
:1001F800FE28FF28722A88313420803101302000FF
:10020800D500FF30BE005703031D0B290C29162902
:100218003908183E840099300318013E850000080B
:10022800BE003D2902305706031D1B291C2927291A
:100238003908FD000130FD36890B1F297D080F396B
:100248000F3CBE003D2903305706031D2C292D29DC
:100258003D293908FD000130FD36890B30297D081C
:100268003F39AB002B08031D3A293B290C290630DE
:10027800BE003E0A031941294229722A0130A90009
:100288005703031D482949294D2A05303E06031DF9
:100298004E294F2953290F30CE000130CD000130AF
:1002A800BC001030B100D130AC0005303E02031C58
:1002B8005E295F296129B60164293E08523EB600CD
:1002C8003E08513EB800BD0105303D02031C6D29B2
:1002D8006E296F29FE292C08860001308700010845
:1002E800BB003D08B03E8600013087000130810721
:1002F800380886000230870001083B060319852963
:10030800862995293D08B03E860001308700810185
:100318003C09CF0538088600023087003B08810079
:10032800A2293D08B03E860001308700183001023E
:10033800031C9F29A029A2293C08CF0436080319C9
:10034800A629A729C3294D080319AB29AC29C32914
:10035800360886000230870001083B06031DB529D0
:10036800B629C02936088600023087000A30010203
:10037800031CBF29C029C129CD010630B6070430A6
:100388003D020318C829C929F3294E083C05031959
:10039800CE29CF29F3290A303B020318D429D529BD
:1003A800E5293E08031DD929DA29E2293B08031962
:1003B800DE29DF29E2293C09CE05F3293108CE04DC
:1003C800F3294E083105031DEA29EB29F1290230EA
:1003D8003E020318F029F129F3293C09CE05031040
:1003E800BC0D0310B10D0130AC070630B807013061
:1003F800BD0768293E08031D022A032A722A4D08F0
:10040800031D072A082A412A4F1C0B2A0C2A412AB5
:10041800AD01AE015130B800B20106303202031C02
:10042800162A172A182A342A380886000230870024
:100438000A3001020318212A222A2A2A0130AD078C
:1004480038088600023087000108AE070130B80777
:100458000130B20706303202031C332A342A182A24
:100468002D03031D382A392A412A08302E06031D78
:100478003E2A3F2A412A0230CD004E082200BB0006
:1004880020004F08CB004D08CA0001302200BC00F4
:10049800722A4808031D512A522A722AB7010530C8
:1004A8003702031C582A592A5A2A722A0730F000A0
:1004B80037089F31A1278031423E20003E07FD00CA
:1004C8007D088600013087003708D13E840001305E
:1004D8008500000881000130B707532AFE30270045
:1004E80096052000911C792A7A2AAF2A2100911CAE
:1004F8007E2A7F2AAF2A2000911001302200B807F7
:100508000030B93D003039021A3003193802031C93
:100518008E2A8F2AA92AB801B90101302100CB07F8
:100528000030CC3DCD3DCE3D20004908031D9D2A1D
:100538009E2AA92A21004B1CA22AA32AA62A0130F6
:100548002200EE0601302200ED008831342080318F
:1005580001302000D5007E1009008231B32AF9301D
:1005680084008730850058308600003087000730C7
:100578009F3187278231963084009F30850065300F
:100588008600013087000B309F31872782318D30FC
:1005980084009F308500CD30860001308700093007
:1005A8009F31872782313F30840000308500193021
:1005B8009F31812782312100CB01CC01CD01CE01B1
:1005C800203084000130850045309F3181278231F9
:1005D800A0308400013085002D309F318127823181
:1005E80051308400023085001E309F3181278231CE
:1005F8007E1020009631B32E21004E084D044C0485
:100608004B04031D082B092B452B2200650A031DEB
:10061800172B660A031D172B670A031D172B680A79
:10062800031D172B182BE72C00302200E8000030A0
:10063800E7000030E6000030E5002100B101B2011A
:100648000730A0003108903102208331423E21005A
:100658003207A90029088600013087000F30810081
:100668000130B20707303202031C3B2B3C2B242BF2
:100678000130B10705303102031C432B442B232BD7
:10068800E72C4E08031D532B4D08031D532B4C0814
:10069800031D532B08304B020318532B542BCA2B22
:1006A80021004E0822006806031D6A2B21004D0810
:1006B80022006706031D6A2B21004C0822006606EB
:1006C800031D6A2B21004B082200650603196D2BB8
:1006D8006E2BE72C21004E082200E80021004D086F
:1006E8002200E70021004C082200E60021004B0808
:1006F8002200E5002100B401B7013708A900AA01CA
:10070800AB01AC014E082C02031D942B4D082B02A3
:10071800031D942B4C082A02031D942B4B08290215
:100728000318972B982BA92B0730A0003408903179
:1007380002208331423E21003707A900290886009C
:100748000130870007308100B92B0730A00034083A
:10075800903102208331423E21003707A900290841
:100768008600013087000F3081000130B70707305D
:100778003702031CC02BC12B812B0130B407043076
:100788003402031CC82BC92B802BE72C21004E08F0
:10079800031DD92B4D08031DD92B4C08031DD92B3C
:1007A8000E304B020318D92BDA2B602C21004E088F
:1007B80022006806031DF02B21004D082200670661
:1007C800031DF02B21004C0822006606031DF02BA8
:1007D80021004B08220065060319F32BF42BE72CA4
:1007E80021004E082200E80021004D082200E70001
:1007F80021004C082200E60021004B082200E500F9
:100808002100B501B801F830A900FF30AA00FF3077
:10081800AB00FF30AC004B08A9074C08AA3D4D08B7
:10082800AB3D4E08AC3D3808AD00AE01AF01B0019C
:100838002C083002031D2A2C2B082F02031D2A2CFA
:100848002A082E02031D2A2C29082D0203182D2CF4
:100858002E2C3F2C0730A000350890310220833120
:10086800423E21003807A900290886000130870088
:100878000F3081004F2C0730A0003508903102203E
:100888008331423E21003807A9002908860001303B
:100898008700073081000130B80707303802031C91
:1008A800562C572C072C0130B50704303502031C91
:1008B8005E2C5F2C062CE72C21004E0822006806CF
:1008C800031D762C21004D0822006706031D762C97
:1008D80021004C0822006606031D762C21004B08D7
:1008E800220065060319792C7A2CE72C21004E0882
:1008F8002200E80021004D082200E70021004C08F2
:100908002200E60021004B082200E500003021000B
:10091800A3000030A2000030A1000C30A000F2308B
:100928004B07A400FF304C3DA500FF304D3DA6000D
:10093800FF304E3DA7009031F3208331210020087D
:10094800B30007303302031CAA2CAB2CAE2C33089F
:100958000C3CB300B601B901390833060319B52CAC
:10096800B62CC72C0730A0003608903102208331FE
:10097800423E21003907A900290886000130870076
:100988000F308100D72C0730A000360890310220A4
:100998008331423E21003907A90029088600013029
:1009A8008700073081000130B90707303902031C7E
:1009B800DE2CDF2CB02C0130B60704303602031CC5
:1009C800E62CE72CAF2C080021002608B8002508E3
:1009D800B7002408B6002308B5000130B400B901F7
:1009E800082D40302100A7004230A8000F30A90090
:1009F8000030AA002708B5022808B63B2908B73BEB
:100A08002A08B83B0130B9073808031D142D4030B7
:100A180035024230363B0F30373B0318142D152D65
:100A2800F52C21003908031D1A2D1B2D232D340800
:100A380003191F2D202D232D0F30B100262D390825
:100A4800B100B401B9013B2DA0302100A7008630C8
:100A5800A8000130A9000030AA002708B50228081C
:100A6800B63B2908B73B2A08B83B0130B907380814
:100A7800031D472DA03035028630363B0130373B09
:100A88000318472D482D282D21003908031D4D2D09
:100A98004E2D562D34080319522D532D562D0F3037
:100AA800B000592D3908B000B401B9016E2D1030CD
:100AB8002100A7002730A8000030A9000030AA00B4
:100AC8002708B5022808B63B2908B73B2A08B83BCF
:100AD8000130B9073808031D7B2D3708031D7B2D0E
:100AE800103035022730363B03187B2D7C2D5B2DCB
:100AF80021003908031D812D822D8A2D3408031900
:100B0800862D872D8A2D0F30AF008D2D3908AF0027
:100B1800B401B901A22DE8302100A7000330A800D4
:100B28000030A9000030AA002708B5022808B63B03
:100B38002908B73B2A08B83B0130B9073808031D14
:100B4800AF2D3708031DAF2DE83035020330363B93
:100B58000318AF2DB02D8F2D21003908031DB52D99
:100B6800B62DBE2D34080319BA2DBB2DBE2D0F305E
:100B7800AE00C12D3908AE00B401B901CC2D6430E6
:100B88002100B5020030B63BB73BB83B0130B9078E
:100B98003808031DDA2D3708031DDA2D3608031D22
:100BA800DA2D643035020318DA2DDB2DC32D210030
:100BB8003908031DE02DE12DE92D34080319E52D31
:100BC800E62DE92D0F30AD00EC2D3908AD00B4014C
:100BD800B901F72D0A302100B5020030B63BB73B0A
:100BE800B83B0130B9073808031D052E3708031D27
:100BF800052E3608031D052E0A3035020318052E6A
:100C0800062EEE2D21003908031D0B2E0C2E1C2E4E
:100C180034080319102E112E1C2E380837043604F8
:100C280035040319182E192E1C2E0F30AC001E2E59
:100C38003908AC003508AB00B201B3010730A00099
:100C48003208903102208431423E21003307A70048
:100C580027088600013087003308AB3E84008501F1
:100C6800000881000130B30707303302031C3D2E12
:100C78003E2E222E0130B20704303202031C452ECC
:100C8800462E212E0800230050082100AB00230027
:100C98004F082100AA0023004E082100A9002300C4
:100CA8004D082100A800AC018B13B5013508A83EFA
:100CB8008600870135089F31CC2786310106031944
:100CC800662E672E6B2E01302100AC00742E013089
:100CD8002100B50704303502031C732E742E5A2EDA
:100CE8008B172C080319792E7A2EBC2E8B13B6017C
:100CF8003608A83E860087010108A000360888311A
:100D08000520863101302100B60704303602031C65
:100D18008E2E8F2E7C2EB701FF30A0003708043EA0
:100D2800883105208631FF302100A0003708083EB1
:100D380088310520863101302100B7070430370299
:100D4800031CA72EA82E902E8B17FF302000C6005C
:100D5800FF30C500FF30C400FF30C300FF30220061
:100D6800EC00FF30EB00FF30EA00FF30E9009F2F76
:100D78000030B0000030AF000030AE000030AD00F1
:100D88008B1307309F31CC2786312100A400A501A1
:100D9800A601A7011830A435A50DA60DA70D890B2E
:100DA800CF2E2408AD042508AE042608AF04270872
:100DB800B00406309F31CC2786312100A400A5015C
:100DC800A601A7011030A435A50DA60DA70D890B06
:100DD800E72E2408AD042508AE042608AF0427082A
:100DE800B00405309F31CC2786312100A400A5012D
:100DF800A601A7010830A435A50DA60DA70D890BDE
:100E0800FF2E2408AD042508AE042608AF042708E1
:100E1800B00404309F31CC2786312100A400A501FD
:100E2800A601A7012408AD042508AE042608AF04CE
:100E38002708B00430082000C60021002F08200031
:100E4800C50021002E082000C40021002D08200024
:100E5800C30000302100B4000030B3000030B200FD
:100E68000030B1000B309F31CC2786312100A4001F
:100E7800A501A601A7011830A435A50DA60DA70D3B
:100E8800890B402F2408B1042508B2042608B304AE
:100E98002708B4040A309F31CC2786312100A400EA
:100EA800A501A601A7011030A435A50DA60DA70D13
:100EB800890B582F2408B1042508B2042608B30466
:100EC8002708B40409309F31CC2786312100A400BB
:100ED800A501A601A7010830A435A50DA60DA70DEB
:100EE800890B702F2408B1042508B2042608B3041E
:100EF8002708B40408309F31CC2786312100A4008C
:100F0800A501A601A7012408B1042508B2042608F2
:100F1800B3042708B4048B1734082000C20021004A
:100F280033082000C100210032082000C000210041
:100F380031082000BF00080000302100AB0000305D
:100F4800AA000030A9000030A800230822042104C8
:100F580020040319B02FB12FF02F0130AC00BD2FA2
:100F68000130A035A10DA20DA30D890BB52F0130BD
:100F7800AC07A31FC02FC12FB42F0130A835A90D6E
:100F8800AA0DAB0D890BC22F23082702031DD62FEC
:100F980022082602031DD62F21082502031DD62F5D
:100FA80020082402031CD92FDA2FE32F2008A402DB
:100FB8002108A53B2208A63B2308A73B281401309B
:100FC800A336A20CA10CA00C890BE42F0130AC02B3
:100FD800031DEF2FF02FC12F2B08A3002A08A20012
:100FE8002908A1002808A0000800FF34FF34FF34B6
:080FF800FF3406340134C93452
:10100A002100A300230095180B280C28072821008B
:10101A002308A100A201210823009100210022082F
:10102A002300920021002008230093003F309505F9
:10103A00200003108B1F22282328242803148B1333
:10104A002300151555309600AA30960095141511EF
:10105A002000031C3128322833288B17080022006D
:10106A006E08031D39283A283E287F302000DE0505
:10107A0040282000DE1722006D08031D4528462857
:10108A004A28BF302000DE054C2820005E170730B2
:10109A00F0005C08F0025E08F8397004DE002200F5
:1010AA008F1720005E082200900020005C08423E54
:1010BA008600013087000F300105F00022000C087D
:1010CA00F03970048C0027008C14000027008C1063
:1010DA0020005C08493E8600013087000F30010578
:1010EA00F00022000C08F03970048C0027000C155F
:1010FA00000027000C1120005C08503E86000130D9
:10110A0087000F300105F00022000C08F039700446
:10111A008C0027008C15000027008C1120005C0829
:10112A00573E8600013087000F300105F00022008B
:10113A000C08F03970048C0027000C1600002700F8
:10114A000C1220005C085E3E8600013087000F30DA
:10115A000105F00022000C08F03970048C00270009
:10116A008C16000027008C1222008F1320005C08C6
:10117A000319C028C128C4280130DC02C628063059
:10118A00DC000800480A0319CB28CC2821292000B2
:10119A005D08031DD128D2281E2922002F0820000D
:1011AA005B02031DE82822002E0820005A02031DB4
:1011BA00E82822002D0820005902031DE8282200F1
:1011CA002C08200058020318EB28EC28FC282200DF
:1011DA002F082000DB0022002E082000DA0022005F
:1011EA002D082000D90022002C082000D8005B0816
:1011FA002100A70020005A082100A6002000590853
:10120A002100A500200058082100A40022006C0833
:10121A002100AB0022006B082100AA0022006A0804
:10122A002100A900220069082100A8009431332472
:10123A00883101302000DD002000D10122003C0865
:10124A00031928292A299731412FBC0120004A086D
:10125A000319302931295E29220033083204310466
:10126A003004031D39293A294D2921004E0822004C
:10127A00B30021004D082200B20021004C082200D0
:10128A00B10021004B082200B000FF302000D0003E
:10129A00023020004A06031D5329542957290130D8
:1012AA002200BD0093314223883101302200BE0062
:1012BA0028290F304B052100C1000F304106031DBC
:1012CA0067296829982F2200BF012000CC0101302C
:1012DA002400C700B530B5005130CF004230CE00EF
:1012EA00B20104303202031C7B297C297D292D2A74
:1012FA0022003E08031D82298329C4293B082400B1
:10130A004705031989298A29C429AC01B301063082
:10131A003302031C912992299329B4294F08860084
:10132A000230870035088400013085000008010674
:10133A000319A029A129AD293508860001308700A3
:10134A004F08840002308500000881000130AC009B
:10135A000130B5070130CF070130B3078C292C08BB
:10136A000319B829B929BC2947082200BF04240057
:10137A0047082000CC0407302400CE07232A240083
:10138A004E088600013087004F088400023085002D
:10139A00000881000130CF070130CE074E088600D1
:1013AA00013087004F088400023085000008810060
:1013BA000130CF070130CE074E0886000130870082
:1013CA004F08840002308500000881000130CF07F1
:1013DA000130CE074E088600013087004F0884008E
:1013EA0002308500000881000130CF070130CE07A6
:1013FA004E088600013087004F08840002308500BD
:10140A00000881000130CF070130CE074E08860060
:10141A00013087004F0884000230850000088100EF
:10142A000130CF070130CE074E0886000130870011
:10143A000F3081000130CE070630B5070310C70D03
:10144A000130B20704303202031C2C2A2D2A7D29CE
:10145A0020004C080319322A332A952F0030220023
:10146A00B3000030B2000030B1000030B0002400F8
:10147A00AD0120005D030319432A442A502A033090
:10148A0051060319492A4A2A502A05305106031DD2
:10149A004F2A502A592A0F304C06031D552A562A1C
:1014AA00592A01302400AD0024002D082200C00072
:1014BA0040080319612A622ACC2A2400CB0104308D
:1014CA004B02031C692A6A2A6B2A282B4B08913182
:1014DA00E421883124004B082100C1000230C135C3
:1014EA00890B742A4108363E860002308700230899
:1014FA00C03F2408C13F2508C23F2608C33F240035
:10150A004B080319892A8A2AC82A4B082100C100D4
:10151A000230C135890B8E2A4108363E86000230D8
:10152A008700403FC200413FC300423FC400433FDF
:10153A00C50024004B082100C6000230C635890BBD
:10154A00A32A4608FC3E363E860002308700403F0A
:10155A00C700413FC800423FC900433FCA0045088F
:10156A004A06031DC22A44084906031DC22A430823
:10157A004806031DC22A420847060319C52AC62A75
:10158A00C82A2200C00101302400CB07642A013096
:10159A002400C700CA0104304A02031CD52AD62AED
:1015AA00D72A282B20004C08240047050319DE2AD5
:1015BA00DF2AF92A4A089131E421883124004A08AD
:1015CA002100C1000230C135890BE82A4108363EA4
:1015DA008600023087002308C03F2408C13F25083F
:1015EA00C23F2608C33F222B4A082100C10002300D
:1015FA00C135890BFD2A4108A03E860001308700CB
:10160A00403FC200413FC300423FC400433FC500C0
:10161A0024004A082100C6000230C635890B122B65
:10162A004608363E8600023087004208C03F43081B
:10163A00C13F4408C23F4508C33F03102400C70DF9
:10164A000130CA07D02A2200400803192D2B2E2B5D
:10165A00A52B0130ED06240039082200EC002400F5
:10166A0038082200EB00240037082200EA00240090
:10167A0036082200E9002000580A031D4E2B590A99
:10168A00031D4E2B5A0A031D4E2B5B0A031D4E2BBC
:10169A004F2B912B240039082000DB002400380846
:1016AA002000DA00240037082000D9002400360878
:1016BA002000D8005B082200AF0020005A08220050
:1016CA00AE00200059082200AD0020005808220070
:1016DA00AC0020005B082100A70020005A08210066
:1016EA00A600200059082100A50020005808210062
:1016FA00A40022006C082100AB0022006B08210024
:10170A00AA0022006A082100A90022006908210013
:10171A00A80094313324883120005B082100A600F8
:10172A0020005A082100A500200059082100A40021
:10173A00200058082100A3008431E8248831982F1A
:10174A000130ED0001302400B400D0010430500211
:10175A00031CB02BB12BB22B982F20004C0824006D
:10176A0034050319B92BBA2B8F2F20005D08031DEE
:10177A00BF2BC02B332D22003F0824003405031948
:10178A00C72BC82B332D50082100C1000230C135A8
:10179A00890BCC2B4108A03E860001308700433FCD
:1017AA00031DE72B403FC20001304202413FC20005
:1017BA003530423B423FC2000C30423B031CE62B11
:1017CA00E72B9A2C240050082100C1000230C135B1
:1017DA00890BEC2B4108A03E860001308700403F70
:1017EA00C200413FC300423FC400433FC50024003A
:1017FA0050082100C6000230C635890B012C460864
:10180A00363E860002308700403FC700413FC8008D
:10181A00423FC900433FCA0045084A02031D1F2C24
:10182A0044084902031D1F2C43084802031D1F2CAC
:10183A00420847020318222C232C9A2C2400500811
:10184A002100C1000230C135890B282C4108A03E75
:10185A00860001308700403FC200413FC300423F3B
:10186A00C400433FC50022006C0821004506031D41
:10187A004E2C22006B0821004406031D4E2C220028
:10188A006A0821004306031D4E2C22006908210024
:10189A0042060319512C522C9A2C2400500821007C
:1018AA00C1000230C135890B572C4108363E8600EB
:1018BA0002308700403FC200413FC300423FC4009C
:1018CA00433FC50022006C0821004506031D7D2CFC
:1018DA0022006B0821004406031D7D2C22006A08A1
:1018EA0021004306031D7D2C2200690821004206BF
:1018FA000319802C812C9A2C24005008283E86003B
:10190A0001308700013081075008283E86000130E7
:10191A0087000A300102031C932C942C9A2C50083D
:10192A00283E8600013087008101240050082100EA
:10193A00C1000230C135890B9F2C4108363E860012
:10194A0002308700403FC200413FC300423FC4000B
:10195A00433FC50022006C0821004506031DC52C23
:10196A0022006B0821004406031DC52C22006A08C8
:10197A0021004306031DC52C2200690821004206E6
:10198A000319C82CC92C332D24005008283E860080
:10199A000130870001082100C100C201C135C20D12
:1019AA00C135C20DF030410784001830423D8038FD
:1019BA008500003FC300013FC400023FC500033F4A
:1019CA00C600240050082100C7000230C735890B21
:1019DA00EB2C4708363E860002308700403FC3079B
:1019EA00413FC43D423FC53D433FC63D46082400F2
:1019FA00B100210045082400B00021004408240059
:101A0A00AF00210043082400AE00310822002F0253
:101A1A00031D1F2D2400300822002E02031D1F2D36
:101A2A0024002F0822002D02031D1F2D24002E083A
:101A3A0022002C020318222D232D332D24003108D5
:101A4A002200AF00240030082200AE0024002F0834
:101A5A002200AD0024002E082200AC002400500809
:101A6A002100C1000230C135890B382D4108363EAC
:101A7A00860002308700403FC200413FC300423F18
:101A8A00C400433FC500240050082100C6000230AC
:101A9A00C635890B4D2D4608A03E860001308700C9
:101AAA004208C03F4308C13F4408C23F4508C33FFC
:101ABA0024005008283E86000130870001080319D7
:101ACA00672D682DE52E07302100A000240050085C
:101ADA00903102208831483E860001308700240078
:101AEA005008283E84000130850000088100063035
:101AFA002100A00024005008903102208831BA3E0B
:101B0A008600013087000A30010203188D2D8E2DC0
:101B1A00A62D06302100A000240050089031022092
:101B2A008831BA3E86000130870001082100C100D1
:101B3A00C20141082400A000210042082400A1009B
:101B4A00A92D2400A001A10107302100A000240032
:101B5A005008903102208831473E860001308700C4
:101B6A0024002008810006302100A000240050082B
:101B7A00903102208831B93E8600013087000A3050
:101B8A0001020318C92DCA2DE22D06302100A0003A
:101B9A0024005008903102208831B93E8600013075
:101BAA00870001082100C100C20141082400A200E7
:101BBA00210042082400A300E52D2400A201A3016C
:101BCA0007302100A00024005008903102208831FB
:101BDA00463E860001308700240022088100063034
:101BEA002100A00024005008903102208831B83E1C
:101BFA008600013087000A3001020318052E062EDE
:101C0A001E2E06302100A000240050089031022028
:101C1A008831B83E86000130870001082100C100E2
:101C2A00C20141082400A400210042082400A500A2
:101C3A00212E2400A401A50107302100A0002400C0
:101C4A005008903102208831453E860001308700D5
:101C5A0024002408810006302100A0002400500836
:101C6A00903102208831B73E8600013087000A3061
:101C7A0001020318412E422E5A2E06302100A000DE
:101C8A0024005008903102208831B73E8600013086
:101C9A00870001082100C100C20141082400A600F2
:101CAA00210042082400A7005D2E2400A601A701F6
:101CBA0007302100A000240050089031022088310A
:101CCA00443E860001308700240026088100063041
:101CDA002100A00024005008903102208831B63E2D
:101CEA008600013087000A30010203187D2E7E2EFD
:101CFA00962E06302100A0002400500890310220C0
:101D0A008831B63E86000130870001082100C100F3
:101D1A00C20141082400A800210042082400A900A9
:101D2A00992E2400A801A90107302100A00024004F
:101D3A005008903102208831433E860001308700E6
:101D4A0024002808810006302100A0002400500841
:101D5A00903102208831B53E8600013087000A3072
:101D6A0001020318B92EBA2ED22E06302100A00085
:101D7A0024005008903102208831B53E8600013097
:101D8A00870001082100C100C20141082400AA00FD
:101D9A00210042082400AB00D52E2400AA01AB0181
:101DAA0007302100A0002400500890310220883119
:101DBA00423E86000130870024002A0881008F2FC6
:101DCA0007302100A00024005008903102208831F9
:101DDA00483E8600013087000F308100073021001D
:101DEA00A00024005008903102208831473E860026
:101DFA000130870006302100A000240050089031ED
:101E0A0002208831BA3E8400013085000008810032
:101E1A0007302100A00024005008903102208831A8
:101E2A00463E86000130870006302100A0002400CB
:101E3A005008903102208831B93E84000130850073
:101E4A000008810007302100A000240050089031CA
:101E5A0002208831453E8600013087000630210085
:101E6A00A00024005008903102208831B83E840036
:101E7A00013085000008810007302100A0002400FD
:101E8A005008903102208831443E86000130870094
:101E9A0006302100A0002400500890310220883129
:101EAA00B73E840001308500000881000730210018
:101EBA00A00024005008903102208831433E860059
:101ECA000130870006302100A0002400500890311C
:101EDA0002208831B63E8400013085000008810066
:101EEA0007302100A00024005008903102208831D8
:101EFA00423E86000130870006302100A0002400FF
:101F0A005008903102208831B53E840001308500A6
:101F1A000008810003102400B40D0130D007AB2B58
:101F2A0001302200ED0020004A08031D9D2F9E2F3C
:101F3A0028291F304B06031DA32FA42F28296930F7
:101F4A002400CC005E30CD004D08860001308700A9
:101F5A004C08840002308500000881000130CC075B
:101F6A000130CD074D088600013087004C088400F7
:101F7A0002308500000881000130CC070130CD070E
:101F8A004D088600013087004C0884000230850025
:101F9A00000881000130CC070130CD074D088600CA
:101FAA00013087004C088400023085000008810057
:101FBA000130CC070130CD074D088600013087007B
:101FCA004C08840002308500000881000130CC07EB
:101FDA000130CD074D088600013087004C08840087
:101FEA0002308500000881000130CC070130CD079E
:061FFA0028298231B12A02
:102004002100A200A101221C082809280B2820086D
:10201400A1070310A00D0310A20C2208031D13280E
:1020240014280528210808002100A1012108A00086
:102034000230A035890B1B282008A03E8600013001
:1020440087000030C03F0030C13FC23FC33F21087A
:10205400283E86000130870081010130A107043049
:102064002102031C36283728182808002100A20161
:102074005E30A30023088600013087000A30010285
:10208400031C452846284828FF3071282308860069
:10209400013087000108A2070130A3072308860046
:1020A400013087000A300102031C59285A285C2891
:1020B4002208712823088600013087000108A00047
:1020C400A101A035A10DA035A10D28302007840061
:1020D4001830213D803885000008A2075A280800DE
:1020E4002200B801B9012000D70100302100CE0040
:1020F4000030CD000030CC000030CB00FF30220097
:10210400E800FF30E700FF30E600FF30E500003074
:10211400B7000030B6000030B5000030B400B8019C
:10212400B901C1012000D601D201D401D30122009A
:10213400BE010030B3000030B2000030B100003006
:10214400B00090302100AD000130AE00AF01AF0A05
:102154009231CB229031080021004E084D044C04EA
:102164004B04031DB628B728F2282200650A031D74
:10217400C528660A031DC528670A031DC528680A01
:10218400031DC528C628F22800302200E8000030CC
:10219400E7000030E6000030E5002100A401A501BD
:1021A4000730A0002408903102209031423E2100E3
:1021B4002507A30023088600013087000F30810023
:1021C4000130A50707302502031CE928EA28D22894
:1021D4000130A40705302402031CF128F228D12879
:1021E4000800210023082204210420040319FB28E9
:1021F400FC2833290130A80008290130A035A10D9D
:10220400A20DA30D890B00290130A807A31F0B29D8
:102214000C29FF2823082702031D1A292208260255
:10222400031D1A2921082502031D1A292008240246
:10223400031C1D291E2926292008A4022108A53BC8
:102244002208A63B2308A73B0130A336A20CA10C0D
:10225400A00C890B27290130A802031D3229332938
:102264000C292708A3002608A2002508A100240899
:10227400A00008002100A401A5010730A000240843
:10228400903102209131423E21002507A30023080A
:102294008600013087000F3081000130A507073028
:1022A4002502031C562957293F290130A40705306C
:1022B4002402031C5E295F293E29F03099000F3067
:1022C4008E043F308D047F308F048F1322008F13D0
:1022D400F03021008C05F03023008C050F302200F3
:1022E4008C042100900123009001C9302200900049
:1022F400C13026008C05C13028008C05C130270070
:102304008C053F309504C030940596018B150B174E
:102314008B1708000030FB000030FA000030F90091
:102324000030F800730872047104700403199B29C7
:102334009C29DB290130FC00A8290130F035F10D7E
:10234400F20DF30D890BA0290130FC07F31FAB2913
:10235400AC299F290130F835F90DFA0DFB0D890BD5
:10236400AD2973087702031DC12972087602031D83
:10237400C12971087502031DC12970087402031C68
:10238400C429C529CE297008F4027108F53B7208E6
:10239400F63B7308F73B78140130F336F20CF10C7A
:1023A400F00C890BCF290130FC02031DDA29DB294B
:1023B400AC297B08F3007A08F2007908F100780868
:1023C400F00008002100B100043031020318EB29A9
:1023D400EC29FC290630A00031089031022091310B
:1023E400B53E8600013087000A300102031CFB2938
:1023F400FC29062AFF302100A600FF30A500FF308B
:10240400A400FF30A300552A00302100AE000030A4
:10241400AD000030AC000030AB00AF01B2010630BB
:10242400A0003108903102209131B53E21003207DD
:10243400A70027088600013087000108B0000A3091
:102444003002031C262A272A282A4D2A2F0830075F
:10245400A700A801A80DA735A80DA735A80D003021
:10246400A9009830AA0027082907860028082A3DD1
:102474008700403FAB07413FAC3D423FAD3D433F4A
:10248400AE3D0A30AF070130B20706303202031CFA
:102494004C2A4D2A112A2E08A6002D08A5002C0826
:1024A400A4002B08A300080000302000210264309F
:1024B4000319200203185F2A602A642A6430A000EA
:1024C4000030A10003302102E93003192002031C6B
:1024D4006C2A6D2A712AE830A0000330A10020087C
:1024E400F0002108F100F201F3012108A400200802
:1024F400A300A436A30C2308A5002408A600A70162
:10250400A80112302507F4007A30263DF50000308A
:10251400273DF6000030283DF70091318C2192319F
:102524007008FF3E20009B009A011F309C00220C83
:102534002100031C9110031891140030F3000030A3
:10254400F2000330F100E830F00020001B08013EE7
:10255400A300003003180130A4002308A5002408B8
:10256400A6000030A61BFF30A700A8000530A53543
:10257400A60DA70DA80D890BB92A2808F70027086E
:10258400F6002608F5002508F40091318C219231DB
:102594000800003021002E02643003192D020318B4
:1025A400D42AD52AD92A6430AD000030AE000330D5
:1025B4002E02E93003192D02031CE12AE22AE62A3D
:1025C400E830AD000330AE002D08A0002E08A100B5
:1025D400A201A3012E08B1002D08B000B136B00C41
:1025E4003008B2003108B300B401B501123032072B
:1025F400A4007A30333DA5000030343DA6000030FD
:10260400353DA7008731A027923121002008FF3EE5
:1026140020009B009A011F309C0021002F0C031CFA
:102624009110031891140030A3000030A20003306D
:10263400A100E830A00020001B08013E2100B000EA
:10264400003003180130B1003008B2003108B30083
:102654000030B31BFF30B400B5000530B235B30D04
:10266400B40DB50D890B302B3508A7003408A6002E
:102674003308A5003208A4008731A027923108004E
:102684002000500A031D472B482B7D2B2100A90154
:10269400AA010730A0002908903102209331423E5C
:1026A40021002A07A3002308860001308700810146
:1026B4000130AA0707302A02031C612B622B4B2B23
:1026C4000130A90705302902031C692B6A2B4A2B08
:1026D4002000D00121004E082200A70021004D084F
:1026E4002200A60021004C082200A50021004B086E
:1026F4002200A400322C09302100A80022003D0849
:102704000319852B862B892B10302100A800220069
:10271400240821004B02A3002200250821004C3B81
:10272400A4002200260821004D3BA5002200270812
:1027340021004E3BA6002608031DAC2B2508031DD3
:10274400AC2B2408031DAC2B09302302031CAB2B38
:10275400AC2B322C21004E082200A70021004D088A
:102764002200A60021004C082200A50021004B08ED
:102774002200A40001302000D007500821002802C4
:102784000318C52BC62BC82B2000D0010A3020000B
:1027940050020318CE2BCF2BF52B2100AB01AC013B
:1027A4000730A0002B08903102209331423E2100D3
:1027B4002C07A3002308860001308700200050085E
:1027C400810001302100AC0707302C02031CEB2BE5
:1027D400EC2BD22B0130AB0705302B02031CF32B5F
:1027E400F42BD12B322C5008103C2100A700AD0152
:1027F400AE012E082706031D002C012C122C0730D5
:10280400A0002D08903102209331423E21002E0772
:10281400A300230886000130870008308100222CA1
:102824000730A0002D08903102209331423E210050
:102834002E07A30023088600013087000F30810093
:102844000130AE0707302E02031C292C2A2CFB2B47
:102854000130AD0705302D02031C312C322CFA2B2C
:1028640008002000460821002706031D492C2000EB
:10287400450821002606031D492C20004408210098
:102884002506031D492C20004308210024060319B2
:102894004C2C4D2CD02C27082000C60021002608E3
:1028A4002000C500210025082000C40021002408C0
:1028B4002000C30043082100B00020004308210089
:1028C400AC00200044082100AD0020004508210090
:1028D400AE00200046082100AF000830AF36AE0C31
:1028E400AD0CAC0C890B702C2C08B10020004308F3
:1028F4002100AC00200044082100AD002000450860
:102904002100AE00200046082100AF001030AF3691
:10291400AE0CAD0CAC0C890B892C2C08B200200039
:1029240043082100AC00200044082100AD00200031
:1029340045082100AE00200046082100AF001830F1
:10294400AF36AE0CAD0CAC0C890BA22C2C08B3002A
:102954008B13B8013808B03E860087013808043E5E
:102964009F31CC27943101060319B92CBA2CC62CFB
:1029740021003808B03E860087010108A00038080D
:10298400043E88310520943101302100B807043019
:102994003802031CCE2CCF2CAC2C8B172000420801
:1029A40021002B06031DE62C2000410821002A06E5
:1029B400031DE62C2000400821002906031DE62CF7
:1029C40020003F08210028060319E92CEA2C6D2D6C
:1029D4002B082000C20021002A082000C100210089
:1029E40029082000C000210028082000BF003F085B
:1029F4002100B40020003F082100AC002000400862
:102A04002100AD00200041082100AE002000420852
:102A14002100AF000830AF36AE0CAD0CAC0C890B06
:102A24000D2D2C08B50020003F082100AC0020002B
:102A340040082100AD00200041082100AE00200024
:102A440042082100AF001030AF36AE0CAD0CAC0C18
:102A5400890B262D2C08B60020003F082100AC006D
:102A6400200040082100AD00200041082100AE00F4
:102A7400200042082100AF001830AF36AE0CAD0C78
:102A8400AC0C890B3F2D2C08B7008B13B901390806
:102A9400B43E860087013908083E9F31CC27943123
:102AA40001060319562D572D632D21003908B43E14
:102AB400860087010108A0003908083E88310520F6
:102AC400943101302100B90704303902031C6B2D05
:102AD4006C2D492D8B170800031020000F1C0314C4
:102AE4000030093D2100C000400803197A2D7B2DD8
:102AF400CB2D20004708031D802D812DCB2D2100D7
:102B04004E082200A30021004D082200A20021004B
:102B14004C082200A10021004B082200A000200044
:102B24004908031D962D972DAE2E0130C9000130A2
:102B34002200EE002000C8012200ED012000570809
:102B44002200BA0003302000D7002100BE01BF01DB
:102B54000730A0003E08903102209531423E21000A
:102B64003F07BA003A088600013087000F30810021
:102B74000130BF0707303F02031CC12DC22DAA2D0F
:102B84000130BE0705303E02031CC92DCA2DA92DF4
:102B9400AE2E21004008031DD02DD12D642E20001F
:102BA40047080319D62DD72D642E4903031DDB2DA9
:102BB400DC2DDF2D0230C900AE2E02304906031D84
:102BC400E42DE52D522E0F302100BA000030BB0059
:102BD4000030BC000030BD00220020082100BA07EC
:102BE400220021082100BB3D220022082100BC3D17
:102BF400220023082100BD3D4E083D02031D0C2E7A
:102C04004D083C02031D0C2E4C083B02031D0C2EE8
:102C14004B083A0203180F2E102E3B2EFF302000D3
:102C2400DB00FF30DA00FF30D900FF30D80000307D
:102C34002200AF000030AE000030AD000030AC0028
:102C4400FF302100A700FF30A600FF30A500FF30B1
:102C5400A400FF30AB00FF30AA00FF30A900FF3012
:102C6400A8009431332495312200ED010130EE00A7
:102C7400AE2E22003A082000D7002200ED010130D8
:102C8400EE0003302000C9000130C80000302200EB
:102C9400B3000030B2000030B1000030B000AE2EFE
:102CA40003304906031D572E582EAE2E22003A0833
:102CB4002000D70001302200ED00EE012000C90100
:102CC400C801AE2E210040080319692E6A2EAE2ECB
:102CD4002000470803196F2E702EAE2E02304906CD
:102CE400031D752E762EAE2E21004B0801392200CD
:102CF400ED000F302100BA000030BB000030BC00F2
:102D04000030BD00220020082100BA07220021085B
:102D14002100BB3D220022082100BC3D22002308E3
:102D24002100BD3D4E083D02031DA22E4D083C026C
:102D3400031DA22E4C083B02031DA22E4B083A028F
:102D44000318A52EA62EAE2E4B1CA92EAB2E013099
:102D5400AC2E00302200EE00210040082000C70005
:102D6400080086314726963191313C2196319030C6
:102D74002100AD000130AE00AF01AF0A9231CB2289
:102D8400963120004608DB004508DA004408D900E3
:102D94004308D8005B082200AF0020005A08220034
:102DA400AE00200059082200AD002000580822007F
:102DB400AC00200042082200EC0020004108220060
:102DC400EB00200040082200EA0020003F08220017
:102DD400E9009031162096312000D1012400C90168
:102DE400C601043049020318F82EF92E0C2F0630C0
:102DF4002100A00024004908903102209631B53EFC
:102E0400240046072100C1004108860001308700E4
:102E14000F30810006302100A000240049089031C1
:102E240002209631513E240046072100C10041088A
:102E34008600023087000F30810001302400C6076D
:102E440006304602031C272F282FF32E4908B03ED4
:102E540086000130870081010130C907053049022D
:102E6400031C352F362FF22E0F302000CE00CC015C
:102E7400CF01CB012200BB0190317220963120009A
:102E8400911C452F462F672F210091184A2F4B2F55
:102E9400672F2000911001302200B8070030B93D9F
:102EA400003039020A3003193802031C5A2F5B2FF1
:102EB400672FB801B90101302100CB070030CC3DA8
:102EC400CD3DCE3D95316E2596312000570803192E
:102ED4006C2F6D2F9B2F02302100C1000030C200E7
:102EE4000030C3000030C400220034082100C107B0
:102EF400220035082100C23D220036082100C33DCE
:102F0400220037082100C43D4E084402031D942FBB
:102F14004D084302031D942F4C084202031D942FB5
:102F24004B0841020318972F982F9B2F9031722042
:102F34009631200055080319A02FA12F412FD50148
:102F44005708031DA62FA72FAB2F833100239631DB
:102F5400412F48080319AF2FB02FD32F2200330875
:102F6400320431043004031DB82FB92FCC2F2100B3
:102F74004E082200B30021004D082200B2002100B7
:102F84004C082200B10021004B082200B000FF30A1
:102F94002000D00001302200BD009331422396313D
:102FA400412F5703031DD72FD82F412F903138209D
:102FB40096312400C80048080319E12FE32F883113
:102FC400C7280A3048020318E82FE92FE12F200010
:102FD400DD0124004803031DF02FF12FFA2F2000F8
:102FE40051030319F62FF72FFA2F9031162096313B
:102FF400240048082000D1008931232900340034FA
:103004000034003401340034003400340234003419
:103014000034003403340034003400340434003405
:1030240000340034053400340034003406340034F1
:1030340000340034073400340034003408340034DD
:1030440000340034093400340034003400340034D3
:10305400003400340A3400340034003414340034AE
:10306400003400341E340034003400342834003476
:103074000034003432340034003400343C3400343E
:103084000034003446340034003400345034003406
:10309400003400345A340034003400340034003432
:1030A400003400346434003400340034C834003450
:1030B400003400342C3401340034003490340134AE
:1030C40000340034F434013400340034583402340D
:1030D40000340034BC34023400340034203403346B
:1030E40000340034843403340034003400340034B5
:1030F40000340034E834033400340034D03407346A
:1031040000340034B8340B3400340034A0340F34A9
:1031140000340034883413340034003470341734E9
:103124000034003458341B340034003440341F3429
:1031340000340034283423340034003400340034A0
:1031440000340034103427340034003420344E3436
:1031540000340034303475340034003440349C344A
:10316400003400345034C334003400346034EA345E
:103174000034003470341134013400348034383471
:103184000134003490345F340134003400340034AA
:1031940000340034A03486340134003440340D3417
:1031A40003340034E03493340434003480341A3467
:1031B400063400342034A13407340034C0342734B6
:1031C400093400346034AE340A3400340034353405
:1031D4000C340034A034BB340D34003400340034D7
:1031E40000340034403442340F34003480348434A6
:1031F4001E340034C034C6342D3400340034093451
:103204003D34003440344B344C34003480348D34F9
:103214005B340034C034CF346A34003400341234A4
:103224007A3400344034543489340034FF34FF3465
:103234000034003401340134FF34FF3402340234E6
:10324400FF34FF34FF34FF34FF34FF3403340334DA
:10325400FF34FF34FF34FF34FF34FF34FF34FF34D2
:10326400FF34FF34FF34FF34FF34FF3404340434B8
:10327400FF34FF34FF34FF34FF34FF34FF34FF34B2
:10328400FF34FF34FF34FF34FF34FF34FF34FF34A2
:10329400FF34FF34FF34FF34FF34FF34FF34FF3492
:1032A400FF34FF34FF34FF34FF34FF340534053476
:1032B400FF34FF34FF34FF34FF34FF34FF34FF3472
:1032C400FF34FF34FF34FF34FF34FF34FF34FF3462
:1032D400FF34FF34FF34FF34FF34FF34FF34FF3452
:1032E400FF34FF34FF34FF34FF34FF34FF34FF3442
:1032F400FF34FF34FF34FF34FF34FF34FF34FF3432
:10330400FF34FF34FF34FF34FF34FF34FF34FF3421
:10331400FF34FF34FF34FF34FF34FF34FF34FF3411
:10332400FF34FF34FF34FF34FF34FF34FF34FF3401
:103334000034003401340134FF34FF3402340234E5
:10334400FF34FF34FF34FF34FF34FF3403340334D9
:10335400FF34FF34FF34FF34FF34FF34FF34FF34D1
:10336400FF34FF34FF34FF34FF34FF3404340434B7
:10337400FF34FF34FF34FF34FF34FF34FF34FF34B1
:10338400FF34FF34FF34FF34FF34FF34FF34FF34A1
:10339400FF34FF34FF34FF34FF34FF34FF34FF3491
:1033A400FF34FF34FF34FF34FF34FF340534053475
:1033B400FF34FF34FF34FF34FF34FF34FF34FF3471
:1033C400FF34FF34FF34FF34FF34FF34FF34FF3461
:1033D400FF34FF34FF34FF34FF34FF34FF34FF3451
:1033E400FF34FF34FF34FF34FF34FF34FF34FF3441
:1033F400FF34FF34FF34FF34FF34FF34FF34FF3431
:10340400FF34FF34FF34FF34FF34FF34FF34FF3420
:10341400FF34FF34FF34FF34FF34FF34FF34FF3410
:10342400FF34FF34FF34FF34FF34FF34FF34FF3400
:1034340002340234043404340234023408340834C8
:1034440002340234043404340234023410341034A8
:1034540002340234043404340234023408340834A8
:103464000234023404340434023402342034203468
:103474000234023404340434023402340834083488
:103484000234023404340434023402341034103468
:103494000234023404340434023402340834083468
:1034A400023402340434043402340234FF34FF346A
:1034B4000234023404340434023402340834083448
:1034C4000234023404340434023402341034103428
:1034D4000234023404340434023402340834083428
:1034E40002340234043404340234023420342034E8
:1034F4000234023404340434023402340834083408
:1035040002340234043404340234023410341034E7
:1035140002340234043404340234023408340834E7
:10352400023402340434043402340234FF34FF34E9
:1035340002340234043404340234023408340834C7
:1035440002340234043404340234023410341034A7
:1035540002340234043404340234023408340834A7
:103564000234023404340434023402342034203467
:103574000234023404340434023402340834083487
:103584000234023404340434023402341034103467
:103594000234023404340434023402340834083467
:1035A400023402340434043402340234FF34FF3469
:1035B4000234023404340434023402340834083447
:1035C4000234023404340434023402341034103427
:1035D4000234023404340434023402340834083427
:1035E40002340234043404340234023420342034E7
:1035F4000234023404340434023402340834083407
:1036040002340234043404340234023410341034E6
:1036140002340234043404340234023408340834E6
:10362400023402340434043402340234FF34FF34E8
:103634000034FF340134FF34FF34FF340234FF34E8
:10364400FF34FF34FF34FF34FF34FF340334FF34DA
:10365400FF34FF34FF34FF34FF34FF34FF34FF34CE
:0E366400FF34FF34FF34FF34FF34FF340434EE
:103F0200640080010131890B822F0034FE0012000F
:103F12001E00FE0B882F0034373479346F346C3432
:103F22000F340F340F340F340F34FF34FF34FF34A7
:103F3200FF34FF34FF34FF34FF34013401340634DC
:103F4200F200F101721CA62FA72FA92F7008F1070A
:103F52000310F00D0310F20C7208031DB12FB22FE3
:103F6200A32F71080800F200F101F3017208013970
:103F7200F1077208F0000130F036890BBD2F70088E
:103F8200F2000130F30708307302031CC92FCA2F55
:103F9200B72F710808002100A200640023009518C1
:103FA200D32FD52F2100CE2F21002208A000A1015E
:103FB20020082300910021002108230092003F30B5
:103FC2009505151413080800F100F201F201711CA5
:103FD200EB2FEC2FED2FFD2F7108F0000130F036A2
:103FE200890BF02F7008F1000130F20708307202DD
:0E3FF200031CFC2FFD2FE82F7208013E080073
:020000040001F9
:04000E00E409FF1FE3
:00000001FF
