:040000008231B12A6E
:100008007E148031003086000030870020000E0802
:10001800AA000B1C10281128752A0F08B900270000
:1000280016082000AF002F08183E84009A300318E5
:10003800013E85000008B300330A03192428252847
:100048003F283308183E84009B300318013E850082
:100058000008B0003309270096052000300A03196C
:10006800362837283F283008D03E860001308700E0
:100078002A080F3981002F1C42284328752A21009D
:100088004E082200B80021004D082200B7002100C8
:100098004C082200B60021004B082200B5002000C1
:1000A8005408031D58285928FA283908FD0001303A
:1000B800FD36890B5C287D083F39BA003A080319D8
:1000C80066286728A728BA1D6A286B287F283A0857
:1000D80007390319702871287F2802305006031D3C
:1000E800762877287A280130D107A5280230D00051
:1000F8000130D100A5283A0890314A208031013AD0
:10010800031D87288828A228033020005006031DD5
:100118008E288F2892280130D1079B285003031975
:10012800962897288F280130D0000130D1003A084E
:100138008731E42780312000CF00A5282000D10195
:10014800D001D301C0285308031DAB28AC28BC2814
:100158004F03031DB028B128BC28033050060319EB
:10016800B628B728B9280330D0000130D107BE28F7
:10017800D101D0010130D3070F305102031CC5282B
:10018800C628722A9630A0000030A100A20193313F
:10019800142380312200EA010130E90020005008D0
:1001A800D400B401B50107303502031CDC28DD2872
:1001B800DE28F1280730F000340890312320803100
:1001C800423E20003507FD007D088600013087008B
:1001D8000F3081000130B507D7280130B40705304A
:1001E8003402031CF828F928D628722A540803195F
:1001F800FE28FF28722A9431002480310130200023
:10020800D200FF30BE005403031D0B290C29162908
:100218003908183E840099300318013E850000080B
:10022800BE003D2902305406031D1B291C2927291D
:100238003908FD000130FD36890B1F297D080F396B
:100248000F3CBE003D2903305406031D2C292D29DF
:100258003D293908FD000130FD36890B30297D081C
:100268003F39AB002B08031D3A293B290C290630DE
:10027800BE003E0A031941294229722A0130A90009
:100288005403031D482949294D2A05303E06031DFC
:100298004E294F2953290F30CA000130C9000130B7
:1002A800BC001030B100D030AC0005303E02031C59
:1002B8005E295F296129B60164293E08523EB600CD
:1002C8003E08513EB800BD0105303D02031C6D29B2
:1002D8006E296F29FE292C08860001308700010845
:1002E800BB003D08203E86000130870001308107B1
:1002F800380886000230870001083B060319852963
:10030800862995293D08203E860001308700810115
:100318003C09CB0538088600023087003B0881007D
:10032800A2293D08203E86000130870018300102CE
:10033800031C9F29A029A2293C08CB0436080319CD
:10034800A629A729C32949080319AB29AC29C32918
:10035800360886000230870001083B06031DB529D0
:10036800B629C02936088600023087000A30010203
:10037800031CBF29C029C129C9010630B6070430AA
:100388003D020318C829C929F3294A083C0503195D
:10039800CE29CF29F3290A303B020318D429D529BD
:1003A800E5293E08031DD929DA29E2293B08031962
:1003B800DE29DF29E2293C09CA05F3293108CA04E4
:1003C800F3294A083105031DEA29EB29F1290230EE
:1003D8003E020318F029F129F3293C09CA05031044
:1003E800BC0D0310B10D0130AC070630B807013061
:1003F800BD0768293E08031D022A032A722A4908F4
:10040800031D072A082A412A4B1C0B2A0C2A412AB9
:10041800AD01AE015130B800B20106303202031C02
:10042800162A172A182A342A380886000230870024
:100438000A3001020318212A222A2A2A0130AD078C
:1004480038088600023087000108AE070130B80777
:100458000130B20706303202031C332A342A182A24
:100468002D03031D382A392A412A08302E06031D78
:100478003E2A3F2A412A0230C9004A082200BC000D
:1004880020004B08C7004908C60001302200BD0003
:10049800722A4408031D512A522A722AB7010530CC
:1004A8003702031C582A592A5A2A722A0730F000A0
:1004B8003708903123208031423E20003E07FD005E
:1004C8007D088600013087003708D03E840001305F
:1004D8008500000881000130B707532AFE30270045
:1004E80096052000911C792A7A2AAF2A2100911CAE
:1004F8007E2A7F2AAF2A2000911001302200B907F6
:100508000030BA3D00303A021A3003193902031C90
:100518008E2A8F2AA92AB901BA0101302100CB07F6
:100528000030CC3DCD3DCE3D20004508031D9D2A21
:100538009E2AA92A21004B1CA22AA32AA62A0130F6
:100548002200EA0601302200E900943100248031BB
:1005580001302000D2007E1009008231B32A193000
:1005680084009030850055308600003087000A30BE
:100578008831012082310830840090308500653050
:100588008600013087000830883101208231103020
:10059800840090308500CC30860001308700093017
:1005A8008831012082313F308400003085001630C8
:1005B8009031022082312100CB01CC01CD01CE0146
:1005C800203084000130850045309031022082318E
:1005D800A0308400013085002C3090310220823117
:1005E80051308400023085001E3090310220823163
:1005F8007E1020008431E82C21004E084D044C0464
:100608004B04031D082B092B452B2200650A031DEB
:10061800172B660A031D172B670A031D172B680A79
:10062800031D172B182BE72C00302200E8000030A0
:10063800E7000030E6000030E5002100B101B2011A
:100648000730A0003108903136208331423E210026
:100658003207A90029088600013087000F30810081
:100668000130B20707303202031C3B2B3C2B242BF2
:100678000130B10705303102031C432B442B232BD7
:10068800E72C4E08031D532B4D08031D532B4C0814
:10069800031D532B08304B020318532B542BCA2B22
:1006A80021004E0822006806031D6A2B21004D0810
:1006B80022006706031D6A2B21004C0822006606EB
:1006C800031D6A2B21004B082200650603196D2BB8
:1006D8006E2BE72C21004E082200E80021004D086F
:1006E8002200E70021004C082200E60021004B0808
:1006F8002200E5002100B401B7013708A900AA01CA
:10070800AB01AC014E082C02031D942B4D082B02A3
:10071800031D942B4C082A02031D942B4B08290215
:100728000318972B982BA92B0730A0003408903179
:1007380036208331423E21003707A9002908860068
:100748000130870007308100B92B0730A00034083A
:10075800903136208331423E21003707A90029080D
:100768008600013087000F3081000130B70707305D
:100778003702031CC02BC12B812B0130B407043076
:100788003402031CC82BC92B802BE72C21004E08F0
:10079800031DD92B4D08031DD92B4C08031DD92B3C
:1007A8000E304B020318D92BDA2B602C21004E088F
:1007B80022006806031DF02B21004D082200670661
:1007C800031DF02B21004C0822006606031DF02BA8
:1007D80021004B08220065060319F32BF42BE72CA4
:1007E80021004E082200E80021004D082200E70001
:1007F80021004C082200E60021004B082200E500F9
:100808002100B501B801F830A900FF30AA00FF3077
:10081800AB00FF30AC004B08A9074C08AA3D4D08B7
:10082800AB3D4E08AC3D3808AD00AE01AF01B0019C
:100838002C083002031D2A2C2B082F02031D2A2CFA
:100848002A082E02031D2A2C29082D0203182D2CF4
:100858002E2C3F2C0730A0003508903136208331EC
:10086800423E21003807A900290886000130870088
:100878000F3081004F2C0730A0003508903136200A
:100888008331423E21003807A9002908860001303B
:100898008700073081000130B80707303802031C91
:1008A800562C572C072C0130B50704303502031C91
:1008B8005E2C5F2C062CE72C21004E0822006806CF
:1008C800031D762C21004D0822006706031D762C97
:1008D80021004C0822006606031D762C21004B08D7
:1008E800220065060319792C7A2CE72C21004E0882
:1008F8002200E80021004D082200E70021004C08F2
:100908002200E60021004B082200E500003021000B
:10091800A3000030A2000030A1000C30A000F2308B
:100928004B07A400FF304C3DA500FF304D3DA6000D
:10093800FF304E3DA7009131582183312100200816
:10094800B30007303302031CAA2CAB2CAE2C33089F
:100958000C3CB300B601B901390833060319B52CAC
:10096800B62CC72C0730A0003608903136208331CA
:10097800423E21003907A900290886000130870076
:100988000F308100D72C0730A00036089031362070
:100998008331423E21003907A90029088600013029
:1009A8008700073081000130B90707303902031C7E
:1009B800DE2CDF2CB02C0130B60704303602031CC5
:1009C800E62CE72CAF2C0800883136208431913191
:1009D800A121843190302100AD000130AE00AF017B
:1009E800AF0A93318923843120004208DC00410892
:1009F800DB004008DA003F08D9005C082200B0009C
:100A080020005B082200AF0020005A082200AE0038
:100A1800200059082200AD0090317B20843120004D
:100A2800CD012400C901C6010430490203181D2D57
:100A38001E2D312D06302100A000240049089031D8
:100A480036208431B43E240046072100C100410805
:100A58008600013087000F30810006302100A00099
:100A680024004908903136208431513E240046073D
:100A78002100C10041088600023087000F30810044
:100A880001302400C60706304602031C4C2D4D2DAC
:100A9800182D4908203E8600013087008101013069
:100AA800C90705304902031C5A2D5B2D172D0F303D
:100AB8002000CA00C801CB01C7012200BC01903147
:100AC800D72084312000911C6A2D6B2D8C2D21009C
:100AD80091186F2D702D8C2D20009110013022005F
:100AE800B9070030BA3D00303A020A30031939021A
:100AF800031C7F2D802D8C2DB901BA0101302100F6
:100B0800CB070030CC3DCD3DCE3D9631BB26843160
:100B1800200054080319912D922DC02D0230210078
:100B2800C1000030C2000030C3000030C400220001
:100B380035082100C107220036082100C23D2200E5
:100B480037082100C33D220038082100C43D4E0863
:100B58004402031DB92D4D084302031DB92D4C084D
:100B68004202031DB92D4B0841020318BC2DBD2DAF
:100B7800C02D9031D7208431200052080319C52D8B
:100B8800C62D662DD2015408031DCB2DCC2DD02D9A
:100B9800833100238431662D44080319D42DD52DC3
:100BA800F82D22003408330432043104031DDD2DEE
:100BB800DE2DF12D21004E082200B40021004D0841
:100BC8002200B30021004C082200B20021004B088B
:100BD8002200B100FF302000CC0001302200BE000E
:100BE800943193248431662D5403031DFC2DFD2D6F
:100BF800662D90319D2084312400C80048080319CF
:100C0800062E072E232E0A30480203180C2E0D2E0E
:100C1800232E2200EB0124004803031D142E152E59
:100C28001E2E20004D0303191A2E1B2E1E2E903146
:100C38007B208431240048082000CD007E2E480AFD
:100C48000319272E282E7C2E22006B08031D2D2E1B
:100C58002E2E792E300820005C02031D432E220020
:100C68002F0820005B02031D432E22002E082000BF
:100C78005A02031D432E22002D0820005902031892
:100C8800462E472E572E220030082000DC00220076
:100C98002F082000DB0022002E082000DA002200A6
:100CA8002D082000D9005C082100A70020005B085F
:100CB8002100A60020005A082100A500200059089C
:100CC8002100A400200058082100AB00200057088C
:100CD8002100AA00200056082100A900200055087C
:100CE8002100A80095318425843101302200EB00D1
:100CF8002000CD0122003D080319842E893188295E
:100D0800662D21002608B8002508B7002408B6007B
:100D18002308B5000130B400B901A52E40302100E8
:100D2800A7004230A8000F30A9000030AA00270809
:100D3800B5022808B63B2908B73B2A08B83B01305A
:100D4800B9073808031DB12E403035024230363B12
:100D58000F30373B0318B12EB22E922E21003908DE
:100D6800031DB72EB82EC02E34080319BC2EBD2E75
:100D7800C02E0F30B100C32E3908B100B401B9013B
:100D8800D82EA0302100A7008630A8000130A90085
:100D98000030AA002708B5022808B63B2908B73B47
:100DA8002A08B83B0130B9073808031DE42EA030E3
:100DB80035028630363B0130373B0318E42EE52EEA
:100DC800C52E21003908031DEA2EEB2EF32E340818
:100DD8000319EF2EF02EF32E0F30B000F62E39083F
:100DE800B000B401B9010B2F10302100A700273043
:100DF800A8000030A9000030AA002708B50228087A
:100E0800B63B2908B73B2A08B83B0130B907380870
:100E1800031D182F3708031D182F103035022730EF
:100E2800363B0318182F192FF82E21003908031DF7
:100E38001E2F1F2F272F34080319232F242F272F66
:100E48000F30AF002A2F3908AF00B401B9013F2F86
:100E5800E8302100A7000330A8000030A9000030C6
:100E6800AA002708B5022808B63B2908B73B2A0874
:100E7800B83B0130B9073808031D4C2F3708031D4C
:100E88004C2FE83035020330363B03184C2F4D2FDA
:100E98002C2F21003908031D522F532F5B2F3408A4
:100EA8000319572F582F5B2F0F30AE005E2F3908CC
:100EB800AE00B401B901692F64302100B5020030D9
:100EC800B63BB73BB83B0130B9073808031D772F4D
:100ED8003708031D772F3608031D772F6430350236
:100EE8000318772F782F602F21003908031D7D2FD5
:100EF8007E2F862F34080319822F832F862F0F30D9
:100F0800AD00892F3908AD00B401B901942F0A301A
:100F18002100B5020030B63BB73BB83B0130B907FA
:100F28003808031DA22F3708031DA22F3608031DFA
:100F3800A22F0A3035020318A22FA32F8B2F2100CE
:100F48003908031DA82FA92FB92F34080319AD2F6D
:100F5800AE2FB92F38083704360435040319B52FD6
:100F6800B62FB92F0F30AC00BB2F3908AC003508AD
:100F7800AB00B201B3010730A0003208903136202F
:100F88008631423E21003307A7002708860001303A
:100F980087003308AB3E84008501000881000130DA
:100FA800B30707303302031CDA2FDB2FBF2F0130C2
:100FB800B20704303202031CE22FE32FBE2F0800D1
:100FC800F100F201F201711CEA2FEB2FEC2FFC2F3C
:100FD8007108F0000130F036890BEF2F7008F1002E
:100FE8000130F20708307202031CFB2FFC2FE72F99
:060FF8007208013E080032
:10100200FE0012001E00FE0B022800342100A30085
:10101200230095180D280E28092821002308A10075
:10102200A20121082300910021002208230092003E
:1010320021002008230093003F3095052000031073
:101042008B1F24282528262803148B13230015150B
:1010520055309600AA309600951415112000031CF5
:101062003328342835288B17080023004F08210025
:10107200AB0023004E082100AA0023004D082100E6
:10108200A90023004C082100A800AC01B5013508D5
:10109200A83E86008701350890316220883101061A
:1010A200031954285528592801302100AC00622820
:1010B20001302100B50704303502031C6128622883
:1010C20048282C08031966286728A628B60136087E
:1010D200A83E860087010108A00036088831072053
:1010E200883101302100B60704303602031C7A2809
:1010F2007B286828B701FF30A0003708043E8831FA
:1011020007208831FF302100A0003708083E8831CF
:101112000720883101302100B70704303702031C51
:10112200932894287C28FF302000C200FF30C100A1
:10113200FF30C000FF30BF00FF30D800FF30D700C3
:10114200FF30D600FF30D50087290030B0000030D4
:10115200AF000030AE000030AD00073090316220A9
:1011620088312100A400A501A601A7011830A435E9
:10117200A50DA60DA70D890BB8282408AD042508D6
:10118200AE042608AF042708B0040630903162206E
:1011920088312100A400A501A601A7011030A435C1
:1011A200A50DA60DA70D890BD0282408AD0425088E
:1011B200AE042608AF042708B0040530903162203F
:1011C20088312100A400A501A601A7010830A43599
:1011D200A50DA60DA70D890BE8282408AD04250846
:1011E200AE042608AF042708B00404309031622010
:1011F20088312100A400A501A601A7012408AD049D
:101202002508AE042608AF042708B00430082000E1
:10121200C20021002F082000C10021002E0820005A
:10122200C00021002D082000BF0000302100B400C2
:101232000030B3000030B2000030B1000B3090310A
:10124200622088312100A400A501A601A70118305F
:10125200A435A50DA60DA70D890B29292408B104D3
:101262002508B2042608B3042708B4040A309031D2
:10127200622088312100A400A501A601A701103037
:10128200A435A50DA60DA70D890B41292408B1048B
:101292002508B2042608B3042708B40409309031A3
:1012A200622088312100A400A501A601A70108300F
:1012B200A435A50DA60DA70D890B59292408B10443
:1012C2002508B2042608B3042708B4040830903174
:1012D200622088312100A400A501A601A7012408EB
:1012E200B1042508B2042608B3042708B40434085C
:1012F2002000D800210033082000D7002100320846
:101302002000D600210031082000D5000800BD01D0
:101312002000460803198E298F29BC29220034088F
:10132200330432043104031D97299829AB29210083
:101332004E082200B40021004D082200B300210013
:101342004C082200B20021004B082200B100FF30FD
:101352002000CC00023020004606031DB129B2292C
:10136200B52901302200BE00943193248931013025
:101372002200BF009C2F0F3047052100C1000F3013
:101382004106031DC529C629972F2200C00120004E
:10139200C80101302400C700B430B5005130CF007D
:1013A2004230CE00B20104303202031CD929DA29BC
:1013B200DB298B2A22003F08031DE029E129222A8A
:1013C2003C08240047050319E729E829222AAC0131
:1013D200B30106303302031CEF29F029F129122A46
:1013E2004F088600023087003508840001308500EE
:1013F200000801060319FE29FF290B2A3508860079
:10140200013087004F088400023085000008810007
:101412000130AC000130B5070130CF070130B3070E
:10142200EA292C080319162A172A1A2A4708220021
:10143200C004240047082000C80407302400CE0757
:10144200812A24004E088600013087004F0884005C
:1014520002308500000881000130CF070130CE073D
:101462004E088600013087004F0884000230850054
:10147200000881000130CF070130CE074E088600F8
:10148200013087004F088400023085000008810087
:101492000130CF070130CE074E08860001308700A9
:1014A2004F08840002308500000881000130CF0718
:1014B2000130CE074E088600013087004F088400B5
:1014C20002308500000881000130CF070130CE07CD
:1014D2004E088600013087004F08840002308500E4
:1014E200000881000130CF070130CE074E08860088
:1014F200013087000F3081000130CE070630B5077A
:101502000310C70D0130B20704303202031C8A2ACD
:101512008B2ADB29200048080319902A912A972F49
:1015220000302200B4000030B3000030B2000030BE
:10153200B1002400AD0122006B030319A12AA22AE3
:10154200AF2A033020004D060319A82AA92AAF2A80
:1015520005304D06031DAE2AAF2AB92A0F302000EE
:101562004806031DB52AB62AB92A01302400AD0067
:1015720024002D082000CE004E080319C12AC22AD9
:10158200372B2400CB0104304B02031CC92ACA2A80
:10159200CB2A932B4B089231A222893124004B088B
:1015A2002100C1000230C135890BD42A4108363EE0
:1015B2008600023087002308C03F2408C13F250867
:1015C200C23F2608C33F24004B080319E92AEA2A2E
:1015D200282B4B082100C1000230C135890BEE2AAD
:1015E2004108363E860002308700403FC200413F3C
:1015F200C300423FC400433FC50024004B08210002
:10160200C6000230C635890B032B4608FC3E363E27
:10161200860002308700403FC700413FC800423F7A
:10162200C900433FCA0045084A06031D222B44084D
:101632004906031D222B43084806031D222B42089C
:1016420047060319252B262B282B2000CE01240028
:101652003908380437043604031D302B312B332B61
:101662002000CE0101302400CB07C42A013024001F
:10167200C700CA0104304A02031C402B412B422BF3
:10168200932B20004808240047050319492B4A2BB5
:10169200642B4A089231A222893124004A0821008F
:1016A200C1000230C135890B532B4108363E8600FA
:1016B200023087002308C03F2408C13F2508C23FEB
:1016C2002608C33F8D2B4A082100C1000230C135D4
:1016D200890B682B4108A03E860001308700403FFD
:1016E200C200413FC300423FC400433FC500240043
:1016F2004A082100C6000230C635890B7D2B4608F8
:10170200363E8600023087004208C03F4308C13F90
:101712004408C23F4508C33F03102400C70D0130EF
:10172200CA073B2B20004E080319982B992B0D2C2E
:10173200240039082000D800240038082000D700EF
:10174200240037082000D600240036082000D500E7
:10175200590A031DB62B5A0A031DB62B5B0A031D39
:10176200B62B5C0A031DB62BB72BF92B24003908C4
:101772002000DC00240038082000DB0024003708A9
:101782002000DA00240036082000D9005C0822007C
:10179200B00020005B082200AF0020005A0822009F
:1017A200AE00200059082200AD0020005C08210094
:1017B200A70020005B082100A60020005A08210093
:1017C200A500200059082100A4002000580821008B
:1017D200AB00200057082100AA0020005608210073
:1017E200A900200055082100A800953184258931DF
:1017F20020005C082100A60020005B082100A50053
:1018020020005A082100A400200059082100A3004A
:10181200863185268931972F01302400B400D0010A
:1018220004305002031C162C172C182C972F200062
:1018320048082400340503191F2C202C912F220064
:101842004008240034050319272C282C352D500874
:101852002100C1000230C135890B2C2C4108A03E69
:10186200860001308700433F031D472C403FC200E2
:1018720001304202413FC2003530423B423FC2008A
:101882000C30423B031C462C472CCB2C2400500826
:101892002100C1000230C135890B4C2C4108A03E09
:1018A200860001308700403FC200413FC300423FF3
:1018B200C400433FC500240050082100C600023086
:1018C200C635890B612C4608363E860002308700F9
:1018D200403FC700413FC800423FC900433FCA00E2
:1018E20045084A02031D7F2C44084902031D7F2C30
:1018F20043084802031D7F2C420847020318822C2A
:10190200832CCB2C240050082100C1000230C135A9
:10191200890B882C4108363E860002308700403F02
:10192200C200413FC300423FC400433FC500200004
:10193200580821004506031DAE2C2000570821003F
:101942004406031DAE2C2000560821004306031D49
:10195200AE2C20005508210042060319B12CB22CEE
:10196200CB2C24005008293E86000130870001302C
:1019720081075008293E8600013087000A300102A3
:10198200031CC42CC52CCB2C5008293E86000130E8
:101992008700810124005008293E8600013087001B
:1019A20001082100C100C201C135C20DC135C20DFD
:1019B200F030410784001830423D80388500003FF6
:1019C200C300013FC400023FC500033FC60024001C
:1019D20050082100C7000230C735890BED2C47089B
:1019E200363E860002308700403FC307413FC43D78
:1019F200423FC53D433FC63D46082400B100210099
:101A020045082400B000210044082400AF00210052
:101A120043082400AE00310822003002031D212DAC
:101A22002400300822002F02031D212D24002F083C
:101A320022002E02031D212D24002E0822002D0239
:101A42000318242D252D352D240031082200B00045
:101A5200240030082200AF0024002F082200AE002C
:101A620024002E082200AD00240050082100C100ED
:101A72000230C135890B3A2D4108363E86000230CC
:101A82008700403FC200413FC300423FC400433F82
:101A9200C500240050082100C6000230C635890B5B
:101AA2004F2D4608A03E8600013087004208C03F05
:101AB2004308C13F4408C23F4508C33F24005008C1
:101AC200293E86000130870001080319692D6A2D1D
:101AD200E72E07302100A000240050089031362064
:101AE2008931483E86000130870024005008293E93
:101AF2008400013085000008810006302100A0002A
:101B020024005008903136208931B93E86000130D8
:101B120087000A30010203188F2D902DA82D063060
:101B22002100A00024005008903136208931B93EAE
:101B320086000130870001082100C100C20141086E
:101B42002400A000210042082400A100AB2D2400A3
:101B5200A001A10107302100A0002400500890310B
:101B620036208931473E8600013087002400200854
:101B7200810006302100A000240050089031362058
:101B82008931B83E8600013087000A30010203180D
:101B9200CB2DCC2DE42D06302100A00024005008CE
:101BA200903136208931B83E860001308700010825
:101BB2002100C100C20141082400A2002100420804
:101BC2002400A300E72D2400A201A3010730210075
:101BD200A00024005008903136208931463E86000C
:101BE2000130870024002208810006302100A00075
:101BF20024005008903136208931B73E86000130EA
:101C020087000A3001020318072E082E202E063004
:101C12002100A00024005008903136208931B73EBF
:101C220086000130870001082100C100C20141087D
:101C32002400A400210042082400A500232E240031
:101C4200A401A50107302100A00024005008903112
:101C520036208931453E8600013087002400240861
:101C6200810006302100A000240050089031362067
:101C72008931B63E8600013087000A30010203181E
:101C8200432E442E5C2E06302100A0002400500872
:101C9200903136208931B63E860001308700010836
:101CA2002100C100C20141082400A600210042080F
:101CB2002400A7005F2E2400A601A70107302100FF
:101CC200A00024005008903136208931443E86001D
:101CD2000130870024002608810006302100A00080
:101CE20024005008903136208931B53E86000130FB
:101CF20087000A30010203187F2E802E982E0630AC
:101D02002100A00024005008903136208931B53ED0
:101D120086000130870001082100C100C20141088C
:101D22002400A800210042082400A9009B2E2400C0
:101D3200A801A90107302100A00024005008903119
:101D420036208931433E860001308700240028086E
:101D5200810006302100A000240050089031362076
:101D62008931B43E8600013087000A30010203182F
:101D7200BB2EBC2ED42E06302100A0002400500819
:101D8200903136208931B43E860001308700010847
:101D92002100C100C20141082400AA00210042081A
:101DA2002400AB00D72E2400AA01AB01073021008A
:101DB200A00024005008903136208931423E86002E
:101DC2000130870024002A088100912F073021006A
:101DD200A00024005008903136208931483E860008
:101DE200013087000F30810007302100A00024005D
:101DF2005008903136208931473E860001308700F5
:101E020006302100A000240050089031362089318C
:101E1200B93E8400013085000008810007302100AE
:101E2200A00024005008903136208931463E8600B9
:101E32000130870006302100A000240050089031B4
:101E420036208931B83E84000130850000088100C7
:101E520007302100A000240050089031362089313B
:101E6200453E86000130870006302100A000240094
:101E72005008903136208931B73E84000130850008
:101E82000008810007302100A00024005008903192
:101E920036208931443E8600013087000630210019
:101EA200A00024005008903136208931B63E8400CB
:101EB200013085000008810007302100A0002400C5
:101EC2005008903136208931433E86000130870028
:101ED20006302100A00024005008903136208931BC
:101EE200B53E8400013085000008810007302100E2
:101EF200A00024005008903136208931423E8600ED
:101F02000130870006302100A000240050089031E3
:101F120036208931B43E84000130850000088100FA
:101F220003102400B40D0130D007112C2000460804
:101F3200031D9C2F9E2F8531662D1F304706031DE2
:101F4200A32FA42F9C2F69302400CC005E30CD003B
:101F52004D088600013087004C088400023085005D
:101F6200000881000130CC070130CD074D08860002
:101F7200013087004C08840002308500000881008F
:101F82000130CC070130CD074D08860001308700B3
:101F92004C08840002308500000881000130CC0723
:101FA2000130CD074D088600013087004C088400BF
:101FB20002308500000881000130CC070130CD07D6
:101FC2004D088600013087004C08840002308500ED
:101FD200000881000130CC070130CD074D08860092
:101FE200013087004C08840002308500000881001F
:0E1FF2000130CC070130CD079C2F8231B12A7F
:10200400640080010131890B03280034FF34FF345C
:10201400FF34FF3401340134013406343734793465
:102024006F346C340F340F340F340F340F34FF34E7
:10203400FF34FF34FF34FF34FF34FF34FF340634FD
:10204400C934F200F101721C282829282B287008B1
:10205400F1070310F00D0310F20C7208031D33286E
:1020640034282528710808002100A200A101221C9F
:102074003C283D283F282008A1070310A00D031089
:10208400A20C2208031D47284828392821080800E3
:10209400F200F101F30172080139F1077208F0004E
:1020A4000130F036890B53287008F2000130F30731
:1020B40008307302031C5F2860284D28710808004B
:1020C4002100A20064002300951869286B282100D0
:1020D400642821002208A000A10120082300910007
:1020E40021002108230092003F30950515141308A0
:1020F40008002100A1012108A0000230A035890BAD
:1021040080282008A03E8600013087000030C03FB0
:102114000030C13FC23FC33F2108293E8600013041
:10212400870081010130A10704302102031C9B2890
:102134009C287D2808002100A2015E30A30023080A
:102144008600013087000A300102031CAA28AB284C
:10215400AD28FF30D6282308860001308700010807
:10216400A2070130A30723088600013087000A3044
:102174000102031CBE28BF28C1282208D628230830
:102184008600013087000108A000A101A035A10D3F
:10219400A035A10D2830200784001830213D803857
:1021A40085000008A207BF2808002200B901BA016F
:1021B4002000D40100302100CE000030CD000030DA
:1021C400CC000030CB00FF302200E800FF30E700F5
:1021D400FF30E600FF30E5000030B8000030B70003
:1021E4000030B6000030B500B901BA01C1012000C9
:1021F400D301CF01D101D0012200BF010030B400CE
:102204000030B3000030B2000030B1009030210043
:10221400AD000130AE00AF01AF0A93318923903194
:10222400080021004E084D044C044B04031D1B29D7
:102234001C2957292200650A031D2A29660A031D41
:102244002A29670A031D2A29680A031D2A292B291A
:10225400572900302200E8000030E7000030E60093
:102264000030E5002100A401A5010730A0002408E6
:10227400903136209131423E21002507A3002308E6
:102284008600013087000F3081000130A507073038
:102294002502031C4E294F2937290130A407053094
:1022A4002402031C56295729362908002100230833
:1022B400220421042004031960296129982901308A
:1022C400A8006D290130A035A10DA20DA30D890B25
:1022D40065290130A807A31F7029712964292308DF
:1022E4002702031D7F2922082602031D7F292108B6
:1022F4002502031D7F2920082402031C8229832927
:102304008B292008A4022108A53B2208A63B230808
:10231400A73B0130A336A20CA10CA00C890B8C297D
:102324000130A802031D9729982971292708A300C1
:102334002608A2002508A1002408A0000800210006
:10234400A401A5010730A000240890313620913162
:10235400423E21002507A3002308860001308700A0
:102364000F3081000130A50707302502031CBB296B
:10237400BC29A4290130A40705302402031CC32965
:10238400C429A329F03099000F308E043F308D0406
:102394007F308F048F1322008F13F03021008C05BF
:1023A400F03023008C050F3022008C0421009001B2
:1023B40023009001C93022009000C13026008C0512
:1023C400C13028008C05C13027008C053F309504AE
:1023D400C030940596018B150B178B17080000303D
:1023E400FB000030FA000030F9000030F8007308F8
:1023F4007204710470040319002A012A402A01306E
:10240400FC000D2A0130F035F10DF20DF30D890BAE
:10241400052A0130FC07F31F102A112A042A01306F
:10242400F835F90DFA0DFB0D890B122A73087702A2
:10243400031D262A72087602031D262A71087502D6
:10244400031D262A70087402031C292A2A2A332A07
:102454007008F4027108F53B7208F63B7308F73B09
:1024640078140130F336F20CF10CF00C890B342A99
:102474000130FC02031D3F2A402A112A7B08F30085
:102484007A08F2007908F1007808F00008000030BA
:102494002100AB000030AA000030A9000030A800E1
:1024A40023082204210420040319592A5A2A992AA8
:1024B4000130AC00662A0130A035A10DA20DA30D98
:1024C400890B5E2A0130AC07A31F692A6A2A5D2A98
:1024D4000130A835A90DAA0DAB0D890B6B2A230871
:1024E4002702031D7F2A22082602031D7F2A2108B2
:1024F4002502031D7F2A20082402031C822A832A22
:102504008C2A2008A4022108A53B2208A63B230804
:10251400A73B28140130A336A20CA10CA00C890BF4
:102524008D2A0130AC02031D982A992A6A2A2B08A5
:10253400A3002A08A2002908A1002808A000080076
:102544002100B100043031020318A92AAA2ABA2AA8
:102554000630A0003108903136209231B43E860016
:10256400013087000A300102031CB92ABA2AC42A9E
:10257400FF302100A600FF30A500FF30A400FF308B
:10258400A300132B00302100AE000030AD0000305A
:10259400AC000030AB00AF01B2010630A00031083E
:1025A400903136209231B43E21003207A70027082B
:1025B4008600013087000108B0000A303002031C95
:1025C400E42AE52AE62A0B2B2F083007A700A801E6
:1025D400A80DA735A80DA735A80D0030A90098307F
:1025E400AA0027082907860028082A3D8700403FBB
:1025F400AB07413FAC3D423FAD3D433FAE3D0A30AA
:10260400AF070130B20706303202031C0A2B0B2B32
:10261400CF2A2E08A6002D08A5002C08A4002B08FC
:10262400A3000800003020002102643003192002B6
:1026340003181D2B1E2B222B6430A0000030A10098
:1026440003302102E93003192002031C2A2B2B2B0F
:102654002F2BE830A0000330A1002008F00021084F
:10266400F100F201F3012108A4002008A300A4361C
:10267400A30C2308A5002408A600A701A801123072
:102684002507F4007A30263DF5000030273DF6009A
:102694000030283DF7009131F12193317008FF3E5D
:1026A40020009B009A011F309C00220C2100031C77
:1026B4009110031891140030F3000030F20003303D
:1026C400F100E830F00020001B08013EA3000030B8
:1026D40003180130A4002308A5002408A600003034
:1026E400A61BFF30A700A8000530A535A60DA70D31
:1026F400A80D890B772B2808F7002708F600260871
:10270400F5002508F4009131F121933108000030DF
:1027140021002E02643003192D020318922B932BEF
:10272400972B6430AD000030AE0003302E02E93048
:1027340003192D02031C9F2BA02BA42BE830AD0002
:102744000330AE002D08A0002E08A100A201A301B1
:102754002E08B1002D08B000B136B00C3008B2001C
:102764003108B300B401B50112303207A4007A3045
:10277400333DA5000030343DA6000030353DA700B0
:1027840092314922933121002008FF3E20009B0012
:102794009A011F309C0021002F0C031C9110031878
:1027A40091140030A3000030A2000330A100E830EF
:1027B400A00020001B08013E2100B00000300318D7
:1027C4000130B1003008B2003108B3000030B31B4F
:1027D400FF30B400B5000530B235B30DB40DB50DFE
:1027E400890BEE2B3508A7003408A6003308A50092
:1027F4003208A400923149229331080022006A0869
:10280400031D052C062C0A2C7F302000DE050C2C21
:102814002000DE1722006908031D112C122C162C2F
:10282400BF302000DE05182C20005E170730F000B2
:102834005D08F0025E08F8397004DE0022008F178C
:1028440020005E082200900020005D08423E8600C1
:10285400013087000F300105F00022000C08F03928
:1028640070048C0027008C14000027008C102000BA
:102874005D08493E8600013087000F300105F000F5
:1028840022000C08F03970048C0027000C1500009D
:1028940027000C1120005D08503E8600013087009F
:1028A4000F300105F00022000C08F03970048C0090
:1028B40027008C15000027008C1120005D08573E6E
:1028C4008600013087000F300105F00022000C085B
:1028D400F03970048C0027000C16000027000C123D
:1028E40020005D085E3E8600013087000F30010540
:1028F400F00022000C08F03970048C0027008C16BC
:10290400000027008C1222008F1320005D08031999
:102914008C2C8D2C902C0130DD02922C0630DD00A5
:10292400080020004C0A031D982C992CCE2C210061
:10293400A901AA010730A00029089031362094315A
:10294400423E21002A07A3002308860001308700A5
:1029540081010130AA0707302A02031CB22CB32CD0
:102964009C2C0130A90705302902031CBA2CBB2C6E
:102974009B2C2000CC0121004E082300B300210031
:102984004D082300B20021004C082300B1002100AF
:102994004B082300B000832D09302100A800220039
:1029A4003E080319D62CD72CDA2C10302100A800AD
:1029B4002300300821004B02A3002300310821002A
:1029C4004C3BA4002300320821004D3BA50023000A
:1029D400330821004E3BA6002608031DFD2C2508C4
:1029E400031DFD2C2408031DFD2C09302302031CA8
:1029F400FC2CFD2C832D21004E082300B300210064
:102A04004D082300B20021004C082300B10021002E
:102A14004B082300B00001302000CC074C082100F3
:102A240028020318162D172D192D2000CC010A3069
:102A340020004C0203181F2D202D462D2100AB0130
:102A4400AC010730A0002B08903136209431423E6F
:102A540021002C07A30023088600013087002000F2
:102A64004C08810001302100AC0707302C02031C04
:102A74003C2D3D2D232D0130AB0705302B02031CCB
:102A8400442D452D222D832D4C08103C2100A700F8
:102A9400AD01AE012E082706031D512D522D632DC5
:102AA4000730A0002D08903136209431423E210099
:102AB4002E07A30023088600013087000830810018
:102AC400732D0730A0002D08903136209431423EFA
:102AD40021002E07A30023088600013087000F3051
:102AE40081000130AE0707302E02031C7A2D7B2DA6
:102AF4004C2D0130AD0705302D02031C822D832D92
:102B04004B2D08002000420821002706031D9A2DA2
:102B14002000410821002606031D9A2D20004008AC
:102B240021002506031D9A2D20003F0821002406BC
:102B340003199D2D9E2D1F2E27082000C200210061
:102B440026082000C100210025082000C000210023
:102B540024082000BF003F082100B00020003F08E7
:102B64002100AC00200040082100AD0020004108F5
:102B74002100AE00200042082100AF000830AF362B
:102B8400AE0CAD0CAC0C890BC12D2C08B10020008F
:102B94003F082100AC00200040082100AD002000C7
:102BA40041082100AE00200042082100AF0010308F
:102BB400AF36AE0CAD0CAC0C890BDA2D2C08B20080
:102BC40020003F082100AC00200040082100AD0097
:102BD400200041082100AE00200042082100AF007F
:102BE4001830AF36AE0CAD0CAC0C890BF32D2C08A1
:102BF400B300B8013808B03E860087013808043EA7
:102C040090316220953101060319092E0A2E162EE1
:102C140021003808B03E860087010108A00038086A
:102C2400043E88310720953101302100B807043073
:102C34003802031C1E2E1F2EFC2D200058082100D4
:102C44002B06031D352E2000570821002A06031DDC
:102C5400352E2000560821002906031D352E20009C
:102C64005508210028060319382E392EBA2E2B08B0
:102C74002000D80021002A082000D70021002908BC
:102C84002000D600210028082000D5005508210086
:102C9400B400200055082100AC0020005608210093
:102CA400AD00200057082100AE0020005808210084
:102CB400AF000830AF36AE0CAD0CAC0C890B5C2EFB
:102CC4002C08B500200055082100AC00200056084F
:102CD4002100AD00200057082100AE002000580854
:102CE4002100AF001030AF36AE0CAD0CAC0C890B2C
:102CF400752E2C08B600200055082100AC002000D9
:102D040056082100AD00200057082100AE00200025
:102D140058082100AF001830AF36AE0CAD0CAC0C27
:102D2400890B8E2E2C08B700B9013908B43E8600F1
:102D340087013908083E9031622095310106031954
:102D4400A42EA52EB12E21003908B43E8600870199
:102D54000108A0003908083E883107209531013068
:102D64002100B90704303902031CB92EBA2E972E5C
:102D74000800031020000F1C03140030093D21003B
:102D8400C00040080319C72EC82E182F200043087E
:102D9400031DCD2ECE2E182F21004E082200A80090
:102DA40021004D082200A70021004C082200A600A3
:102DB40021004B082200A50020004508031DE32E36
:102DC400E42EFB2F0130C50001302200EA00200070
:102DD400C4012200E901200054082200BB00033092
:102DE4002000D4002100BE01BF010730A0003E082E
:102DF400903136209631423E21003F07BA003A080E
:102E04008600013087000F3081000130BF07073092
:102E14003F02031C0E2F0F2FF72E0130BE07053083
:102E24003E02031C162F172FF62EFB2F21004008FD
:102E3400031D1D2F1E2FB12F200043080319232F1C
:102E4400242FB12F4503031D282F292F2C2F0230A7
:102E5400C500FB2F02304506031D312F322F9F2F53
:102E64000F302100BA000030BB000030BC0000303D
:102E7400BD00220025082100BA07220026082100EF
:102E8400BB3D220027082100BC3D22002808210068
:102E9400BD3D4E083D02031D592F4D083C02031D44
:102EA400592F4C083B02031D592F4B083A020318B3
:102EB4005C2F5D2F882FFF302000DC00FF30DB000B
:102EC400FF30DA00FF30D900FF302200B000FF30BD
:102ED400AF00FF30AE00FF30AD00FF302100A7008F
:102EE400FF30A600FF30A500FF30A400FF30AB0088
:102EF400FF30AA00FF30A900FF30A80095318425D7
:102F040096312200E9010130EA00FB2F22003B0840
:102F14002000D4002200E9010130EA00033020003F
:102F2400C5000130C40000302200B4000030B300FA
:102F34000030B2000030B100FB2F03304506031D02
:102F4400A42FA52FFB2F22003B082000D400013022
:102F54002200E900EA012000C501C401FB2F210081
:102F640040080319B62FB72FFB2F2000430803197D
:102F7400BC2FBD2FFB2F02304506031DC22FC32FCC
:102F8400FB2F21004B0801392200E9000F302100FA
:102F9400BA000030BB000030BC000030BD0022008D
:102FA40025082100BA07220026082100BB3D220083
:102FB40027082100BC3D220028082100BD3D4E0801
:102FC4003D02031DEF2F4D083C02031DEF2F4C085B
:102FD4003B02031DEF2F4B083A020318F22FF32F85
:102FE400FB2F4B1CF62FF82F0130F92F0030220055
:102FF400EA00210040082000C30008000034003427
:103004000034003401340034003400340234003419
:103014000034003403340034003400340434003405
:1030240000340034053400340034003406340034F1
:1030340000340034073400340034003408340034DD
:1030440000340034093400340034003400340034D3
:10305400003400340A3400340034003414340034AE
:10306400003400341E340034003400342834003476
:103074000034003432340034003400343C3400343E
:103084000034003446340034003400345034003406
:10309400003400345A340034003400340034003432
:1030A400003400346434003400340034C834003450
:1030B400003400342C3401340034003490340134AE
:1030C40000340034F434013400340034583402340D
:1030D40000340034BC34023400340034203403346B
:1030E40000340034843403340034003400340034B5
:1030F40000340034E834033400340034D03407346A
:1031040000340034B8340B3400340034A0340F34A9
:1031140000340034883413340034003470341734E9
:103124000034003458341B340034003440341F3429
:1031340000340034283423340034003400340034A0
:1031440000340034103427340034003420344E3436
:1031540000340034303475340034003440349C344A
:10316400003400345034C334003400346034EA345E
:103174000034003470341134013400348034383471
:103184000134003490345F340134003400340034AA
:1031940000340034A03486340134003440340D3417
:1031A40003340034E03493340434003480341A3467
:1031B400063400342034A13407340034C0342734B6
:1031C400093400346034AE340A3400340034353405
:1031D4000C340034A034BB340D34003400340034D7
:1031E40000340034403442340F34003480348434A6
:1031F4001E340034C034C6342D3400340034093451
:103204003D34003440344B344C34003480348D34F9
:103214005B340034C034CF346A34003400341234A4
:103224007A3400344034543489340034FF34FF3465
:103234000034003401340134FF34FF3402340234E6
:10324400FF34FF34FF34FF34FF34FF3403340334DA
:10325400FF34FF34FF34FF34FF34FF34FF34FF34D2
:10326400FF34FF34FF34FF34FF34FF3404340434B8
:10327400FF34FF34FF34FF34FF34FF34FF34FF34B2
:10328400FF34FF34FF34FF34FF34FF34FF34FF34A2
:10329400FF34FF34FF34FF34FF34FF34FF34FF3492
:1032A400FF34FF34FF34FF34FF34FF340534053476
:1032B400FF34FF34FF34FF34FF34FF34FF34FF3472
:1032C400FF34FF34FF34FF34FF34FF34FF34FF3462
:1032D400FF34FF34FF34FF34FF34FF34FF34FF3452
:1032E400FF34FF34FF34FF34FF34FF34FF34FF3442
:1032F400FF34FF34FF34FF34FF34FF34FF34FF3432
:10330400FF34FF34FF34FF34FF34FF34FF34FF3421
:10331400FF34FF34FF34FF34FF34FF34FF34FF3411
:10332400FF34FF34FF34FF34FF34FF34FF34FF3401
:103334000034003401340134FF34FF3402340234E5
:10334400FF34FF34FF34FF34FF34FF3403340334D9
:10335400FF34FF34FF34FF34FF34FF34FF34FF34D1
:10336400FF34FF34FF34FF34FF34FF3404340434B7
:10337400FF34FF34FF34FF34FF34FF34FF34FF34B1
:10338400FF34FF34FF34FF34FF34FF34FF34FF34A1
:10339400FF34FF34FF34FF34FF34FF34FF34FF3491
:1033A400FF34FF34FF34FF34FF34FF340534053475
:1033B400FF34FF34FF34FF34FF34FF34FF34FF3471
:1033C400FF34FF34FF34FF34FF34FF34FF34FF3461
:1033D400FF34FF34FF34FF34FF34FF34FF34FF3451
:1033E400FF34FF34FF34FF34FF34FF34FF34FF3441
:1033F400FF34FF34FF34FF34FF34FF34FF34FF3431
:10340400FF34FF34FF34FF34FF34FF34FF34FF3420
:10341400FF34FF34FF34FF34FF34FF34FF34FF3410
:10342400FF34FF34FF34FF34FF34FF34FF34FF3400
:1034340002340234043404340234023408340834C8
:1034440002340234043404340234023410341034A8
:1034540002340234043404340234023408340834A8
:103464000234023404340434023402342034203468
:103474000234023404340434023402340834083488
:103484000234023404340434023402341034103468
:103494000234023404340434023402340834083468
:1034A400023402340434043402340234FF34FF346A
:1034B4000234023404340434023402340834083448
:1034C4000234023404340434023402341034103428
:1034D4000234023404340434023402340834083428
:1034E40002340234043404340234023420342034E8
:1034F4000234023404340434023402340834083408
:1035040002340234043404340234023410341034E7
:1035140002340234043404340234023408340834E7
:10352400023402340434043402340234FF34FF34E9
:1035340002340234043404340234023408340834C7
:1035440002340234043404340234023410341034A7
:1035540002340234043404340234023408340834A7
:103564000234023404340434023402342034203467
:103574000234023404340434023402340834083487
:103584000234023404340434023402341034103467
:103594000234023404340434023402340834083467
:1035A400023402340434043402340234FF34FF3469
:1035B4000234023404340434023402340834083447
:1035C4000234023404340434023402341034103427
:1035D4000234023404340434023402340834083427
:1035E40002340234043404340234023420342034E7
:1035F4000234023404340434023402340834083407
:1036040002340234043404340234023410341034E6
:1036140002340234043404340234023408340834E6
:10362400023402340434043402340234FF34FF34E8
:103634000034FF340134FF34FF34FF340234FF34E8
:10364400FF34FF34FF34FF34FF34FF340334FF34DA
:10365400FF34FF34FF34FF34FF34FF34FF34FF34CE
:0E366400FF34FF34FF34FF34FF34FF340434EE
:020000040001F9
:04000E00E409FF1FE3
:00000001FF
